{
  "_format": "hh-sol-artifact-1",
  "contractName": "Silvyx",
  "sourceName": "contracts/Silvyx.sol",
  "abi": [
    {
      "inputs": [],
      "stateMutability": "payable",
      "type": "constructor"
    },
    {
      "inputs": [
        {
          "internalType": "uint256",
          "name": "withdrawId",
          "type": "uint256"
        }
      ],
      "name": "abortWithdraw",
      "outputs": [],
      "stateMutability": "nonpayable",
      "type": "function"
    },
    {
      "inputs": [
        {
          "internalType": "uint256",
          "name": "positionId",
          "type": "uint256"
        },
        {
          "internalType": "uint256",
          "name": "newUnlockDate",
          "type": "uint256"
        }
      ],
      "name": "changeUnlockDate",
      "outputs": [],
      "stateMutability": "nonpayable",
      "type": "function"
    },
    {
      "inputs": [
        {
          "internalType": "uint256",
          "name": "positionId",
          "type": "uint256"
        }
      ],
      "name": "closePosition",
      "outputs": [],
      "stateMutability": "nonpayable",
      "type": "function"
    },
    {
      "inputs": [
        {
          "internalType": "uint256",
          "name": "withdrawId",
          "type": "uint256"
        },
        {
          "internalType": "address",
          "name": "reciever",
          "type": "address"
        }
      ],
      "name": "confirmRecieved",
      "outputs": [],
      "stateMutability": "nonpayable",
      "type": "function"
    },
    {
      "inputs": [],
      "name": "currentPositionId",
      "outputs": [
        {
          "internalType": "uint256",
          "name": "",
          "type": "uint256"
        }
      ],
      "stateMutability": "view",
      "type": "function"
    },
    {
      "inputs": [],
      "name": "currentWithdrawId",
      "outputs": [
        {
          "internalType": "uint256",
          "name": "",
          "type": "uint256"
        }
      ],
      "stateMutability": "view",
      "type": "function"
    },
    {
      "inputs": [
        {
          "internalType": "uint256",
          "name": "numDays",
          "type": "uint256"
        }
      ],
      "name": "getInterestRate",
      "outputs": [
        {
          "internalType": "uint256",
          "name": "",
          "type": "uint256"
        }
      ],
      "stateMutability": "view",
      "type": "function"
    },
    {
      "inputs": [],
      "name": "getLockPeriods",
      "outputs": [
        {
          "internalType": "uint256[]",
          "name": "",
          "type": "uint256[]"
        }
      ],
      "stateMutability": "view",
      "type": "function"
    },
    {
      "inputs": [
        {
          "internalType": "uint256",
          "name": "positionId",
          "type": "uint256"
        }
      ],
      "name": "getPositionById",
      "outputs": [
        {
          "components": [
            {
              "internalType": "uint256",
              "name": "positionId",
              "type": "uint256"
            },
            {
              "internalType": "address",
              "name": "walletAddress",
              "type": "address"
            },
            {
              "internalType": "uint256",
              "name": "createdDate",
              "type": "uint256"
            },
            {
              "internalType": "uint256",
              "name": "unlockDate",
              "type": "uint256"
            },
            {
              "internalType": "uint256",
              "name": "percentInterest",
              "type": "uint256"
            },
            {
              "internalType": "uint256",
              "name": "weiStaked",
              "type": "uint256"
            },
            {
              "internalType": "uint256",
              "name": "weiInterest",
              "type": "uint256"
            },
            {
              "internalType": "bool",
              "name": "open",
              "type": "bool"
            }
          ],
          "internalType": "struct Silvyx.StakingPosition",
          "name": "",
          "type": "tuple"
        }
      ],
      "stateMutability": "view",
      "type": "function"
    },
    {
      "inputs": [
        {
          "internalType": "address",
          "name": "walletAddress",
          "type": "address"
        }
      ],
      "name": "getPositionIdsForAddress",
      "outputs": [
        {
          "internalType": "uint256[]",
          "name": "",
          "type": "uint256[]"
        }
      ],
      "stateMutability": "view",
      "type": "function"
    },
    {
      "inputs": [
        {
          "internalType": "uint256",
          "name": "withdrawId",
          "type": "uint256"
        }
      ],
      "name": "getWithdrawPositionById",
      "outputs": [
        {
          "components": [
            {
              "internalType": "uint256",
              "name": "withdrawId",
              "type": "uint256"
            },
            {
              "internalType": "address",
              "name": "walletAddress",
              "type": "address"
            },
            {
              "internalType": "uint256",
              "name": "createdDate",
              "type": "uint256"
            },
            {
              "internalType": "uint256",
              "name": "withdrawAmount",
              "type": "uint256"
            },
            {
              "internalType": "bool",
              "name": "withdrawOpen",
              "type": "bool"
            }
          ],
          "internalType": "struct Silvyx.WithdrawPosition",
          "name": "",
          "type": "tuple"
        }
      ],
      "stateMutability": "view",
      "type": "function"
    },
    {
      "inputs": [],
      "name": "getWithdrawPositionIds",
      "outputs": [
        {
          "internalType": "uint256[]",
          "name": "",
          "type": "uint256[]"
        }
      ],
      "stateMutability": "view",
      "type": "function"
    },
    {
      "inputs": [
        {
          "internalType": "address",
          "name": "walletAddress",
          "type": "address"
        }
      ],
      "name": "getWithdrawPositionIdsForAddress",
      "outputs": [
        {
          "internalType": "uint256[]",
          "name": "",
          "type": "uint256[]"
        }
      ],
      "stateMutability": "view",
      "type": "function"
    },
    {
      "inputs": [
        {
          "internalType": "uint256",
          "name": "",
          "type": "uint256"
        }
      ],
      "name": "lockPeriods",
      "outputs": [
        {
          "internalType": "uint256",
          "name": "",
          "type": "uint256"
        }
      ],
      "stateMutability": "view",
      "type": "function"
    },
    {
      "inputs": [
        {
          "internalType": "uint256",
          "name": "numDays",
          "type": "uint256"
        },
        {
          "internalType": "uint256",
          "name": "basisPoints",
          "type": "uint256"
        }
      ],
      "name": "modifyLockPeriods",
      "outputs": [],
      "stateMutability": "nonpayable",
      "type": "function"
    },
    {
      "inputs": [],
      "name": "owner",
      "outputs": [
        {
          "internalType": "address",
          "name": "",
          "type": "address"
        }
      ],
      "stateMutability": "view",
      "type": "function"
    },
    {
      "inputs": [
        {
          "internalType": "address",
          "name": "",
          "type": "address"
        },
        {
          "internalType": "uint256",
          "name": "",
          "type": "uint256"
        }
      ],
      "name": "positionIdsByAddress",
      "outputs": [
        {
          "internalType": "uint256",
          "name": "",
          "type": "uint256"
        }
      ],
      "stateMutability": "view",
      "type": "function"
    },
    {
      "inputs": [
        {
          "internalType": "uint256",
          "name": "",
          "type": "uint256"
        }
      ],
      "name": "positions",
      "outputs": [
        {
          "internalType": "uint256",
          "name": "withdrawId",
          "type": "uint256"
        },
        {
          "internalType": "address",
          "name": "walletAddress",
          "type": "address"
        },
        {
          "internalType": "uint256",
          "name": "createdDate",
          "type": "uint256"
        },
        {
          "internalType": "uint256",
          "name": "withdrawAmount",
          "type": "uint256"
        },
        {
          "internalType": "bool",
          "name": "withdrawOpen",
          "type": "bool"
        }
      ],
      "stateMutability": "view",
      "type": "function"
    },
    {
      "inputs": [
        {
          "internalType": "uint256",
          "name": "numDays",
          "type": "uint256"
        }
      ],
      "name": "stakeToken",
      "outputs": [],
      "stateMutability": "payable",
      "type": "function"
    },
    {
      "inputs": [
        {
          "internalType": "uint256",
          "name": "",
          "type": "uint256"
        }
      ],
      "name": "stakingpositions",
      "outputs": [
        {
          "internalType": "uint256",
          "name": "positionId",
          "type": "uint256"
        },
        {
          "internalType": "address",
          "name": "walletAddress",
          "type": "address"
        },
        {
          "internalType": "uint256",
          "name": "createdDate",
          "type": "uint256"
        },
        {
          "internalType": "uint256",
          "name": "unlockDate",
          "type": "uint256"
        },
        {
          "internalType": "uint256",
          "name": "percentInterest",
          "type": "uint256"
        },
        {
          "internalType": "uint256",
          "name": "weiStaked",
          "type": "uint256"
        },
        {
          "internalType": "uint256",
          "name": "weiInterest",
          "type": "uint256"
        },
        {
          "internalType": "bool",
          "name": "open",
          "type": "bool"
        }
      ],
      "stateMutability": "view",
      "type": "function"
    },
    {
      "inputs": [
        {
          "internalType": "uint256",
          "name": "",
          "type": "uint256"
        }
      ],
      "name": "tiers",
      "outputs": [
        {
          "internalType": "uint256",
          "name": "",
          "type": "uint256"
        }
      ],
      "stateMutability": "view",
      "type": "function"
    },
    {
      "inputs": [],
      "name": "withdrawAmount",
      "outputs": [],
      "stateMutability": "payable",
      "type": "function"
    },
    {
      "inputs": [
        {
          "internalType": "uint256",
          "name": "",
          "type": "uint256"
        }
      ],
      "name": "withdrawIds",
      "outputs": [
        {
          "internalType": "uint256",
          "name": "",
          "type": "uint256"
        }
      ],
      "stateMutability": "view",
      "type": "function"
    },
    {
      "inputs": [
        {
          "internalType": "address",
          "name": "",
          "type": "address"
        },
        {
          "internalType": "uint256",
          "name": "",
          "type": "uint256"
        }
      ],
      "name": "withdrawIdsByAddress",
      "outputs": [
        {
          "internalType": "uint256",
          "name": "",
          "type": "uint256"
        }
      ],
      "stateMutability": "view",
      "type": "function"
    }
  ],
  "bytecode": "0x6080604052600080546001600160a01b0319163317815560068190556012819055601560205260647f8191f4eb6b8bafbfe9a5389c8d07d7f5fd81137a7ee653fc4358269845ee1d2e5560c87f5d0f48e37dc1225cdee8d6f2a0315d796f55423522fe638d7d95421802dfc0065561012c7f0cfcac9f3767130657d3b01a9146da544eeb39eb9670066ace5e84da7fc4319f5560168054600181810183559282905260047fd833147d7dc355ba459fc788f669e58cfaf9dc25ddcd0702e87d69c7b512428991820155815480840183556007908201558154928301909155600a910155611391806100f16000396000f3fe60806040526004361061014b5760003560e01c80634c8f2a78116100b6578063a126d6011161006f578063a126d601146104ee578063b0f0475b1461050e578063b838ec861461052e578063c7c9d055146105b5578063cda6b847146105d5578063ea0c9752146105e857600080fd5b80634c8f2a7814610335578063534844a21461035557806357af32e91461035d578063791ca1971461040d5780638da5cb5b1461042d57806399fbab881461046557600080fd5b80631bdcbaac116101085780631bdcbaac1461022b5780632777af4d1461029357806328da478b146102b357806340d98a44146102d357806341ee13be1461030057806345eae3731461031557600080fd5b8063039af9eb146101505780630c196a74146101905780630dd227ee146101bd5780630eb59f1d146101dd5780631131c8cd146101ff5780631add567f14610215575b600080fd5b34801561015c57600080fd5b5061017d61016b366004611246565b60156020526000908152604090205481565b6040519081526020015b60405180910390f35b34801561019c57600080fd5b5061017d6101ab366004611246565b60009081526015602052604090205490565b3480156101c957600080fd5b5061017d6101d8366004611246565b6105fd565b3480156101e957600080fd5b506101fd6101f8366004611246565b61061e565b005b34801561020b57600080fd5b5061017d60125481565b34801561022157600080fd5b5061017d60065481565b34801561023757600080fd5b5061024b610246366004611246565b610775565b6040516101879190815181526020808301516001600160a01b031690820152604080830151908201526060808301519082015260809182015115159181019190915260a00190565b34801561029f57600080fd5b506101fd6102ae36600461125e565b61080f565b3480156102bf57600080fd5b5061017d6102ce36600461121d565b610964565b3480156102df57600080fd5b506102f36102ee3660046111fc565b610995565b60405161018791906112aa565b34801561030c57600080fd5b506102f3610a01565b34801561032157600080fd5b5061017d61033036600461121d565b610a59565b34801561034157600080fd5b5061017d610350366004611246565b610a75565b6101fd610a85565b34801561036957600080fd5b506103c8610378366004611246565b6013602052600090815260409020805460018201546002830154600384015460048501546005860154600687015460079097015495966001600160a01b0390951695939492939192909160ff1688565b604080519889526001600160a01b039097166020890152958701949094526060860192909252608085015260a084015260c0830152151560e082015261010001610187565b34801561041957600080fd5b506102f36104283660046111fc565b610bd8565b34801561043957600080fd5b5060005461044d906001600160a01b031681565b6040516001600160a01b039091168152602001610187565b34801561047157600080fd5b506104bc610480366004611246565b6007602052600090815260409020805460018201546002830154600384015460049094015492936001600160a01b039092169290919060ff1685565b604080519586526001600160a01b0390941660208601529284019190915260608301521515608082015260a001610187565b3480156104fa57600080fd5b506101fd610509366004611246565b610c42565b34801561051a57600080fd5b506101fd610529366004611289565b610dd5565b34801561053a57600080fd5b5061054e610549366004611246565b610e84565b6040516101879190815181526020808301516001600160a01b03169082015260408083015190820152606080830151908201526080808301519082015260a0808301519082015260c0808301519082015260e0918201511515918101919091526101000190565b3480156105c157600080fd5b506101fd6105d0366004611289565b610f53565b6101fd6105e3366004611246565b610fcd565b3480156105f457600080fd5b506102f3611169565b6009818154811061060d57600080fd5b600091825260209091200154905081565b6000818152600760205260409020600101546001600160a01b031633146106aa5760405162461bcd60e51b815260206004820152603560248201527f4f6e6c79207769746864726177616c20706f736974696f6e2063726561746f72604482015274206d6179206d6f6469667920706f736974696f6e7360581b60648201526084015b60405180910390fd5b60008181526007602052604090206004015460ff1615156001146107075760405162461bcd60e51b815260206004820152601460248201527315da5d1a191c985dd85b081a5cc818db1bdcd95960621b60448201526064016106a1565b6000818152600760205260409081902060048101805460ff191690556003015490513391905b60006040518083038185875af1925050503d806000811461076a576040519150601f19603f3d011682016040523d82523d6000602084013e61076f565b606091505b50505050565b6107b26040518060a001604052806000815260200160006001600160a01b0316815260200160008152602001600081526020016000151581525090565b50600090815260076020908152604091829020825160a0810184528154815260018201546001600160a01b0316928101929092526002810154928201929092526003820154606082015260049091015460ff161515608082015290565b6000828152600760205260409020600101546001600160a01b031633146108975760405162461bcd60e51b815260206004820152603660248201527f4f6e6c7920776974686472617777616c20706f736974696f6e2063726561746f60448201527572206d6179206d6f6469667920706f736974696f6e7360501b60648201526084016106a1565b60008281526007602052604090206004015460ff1615156001146108f55760405162461bcd60e51b815260206004820152601560248201527415da5d1a191c985dd85ddb081a5cc818db1bdcd959605a1b60448201526064016106a1565b60008281526007602052604080822060048101805460ff191690556003015490516001600160a01b0384169281818185875af1925050503d8060008114610958576040519150601f19603f3d011682016040523d82523d6000602084013e61095d565b606091505b5050505050565b6008602052816000526040600020818154811061098057600080fd5b90600052602060002001600091509150505481565b6001600160a01b0381166000908152601460209081526040918290208054835181840281018401909452808452606093928301828280156109f557602002820191906000526020600020905b8154815260200190600101908083116109e1575b50505050509050919050565b60606016805480602002602001604051908101604052809291908181526020018280548015610a4f57602002820191906000526020600020905b815481526020019060010190808311610a3b575b5050505050905090565b6014602052816000526040600020818154811061098057600080fd5b6016818154811061060d57600080fd5b60003411610ae95760405162461bcd60e51b815260206004820152602b60248201527f5769746864726177616c20616d6f756e74206d7573742062652067726561746560448201526a72207468616e207a65726f60a81b60648201526084016106a1565b6040805160a081018252600680548083523360208085018281524286880190815234606088019081526001608089018181526000978852600786528a882099518a55935189820180546001600160a01b0319166001600160a01b039092169190911790559151600289015551600388015590516004909601805460ff19169615159690961790955590825260088152938120825481548086018355918352948220019390935580546009805480850182559085527f6e1540171b6c0c960b71a7020d9f60077f6af931a8bbf590da0223dacf75c7af0181905591929091610bd19084906112ee565b9091555050565b6001600160a01b0381166000908152600860209081526040918290208054835181840281018401909452808452606093928301828280156109f557602002820191906000526020600020908154815260200190600101908083116109e15750505050509050919050565b6000818152601360205260409020600101546001600160a01b03163314610cc65760405162461bcd60e51b815260206004820152603260248201527f4f6e6c79207374616b696e6720706f736974696f6e2063726561746f72206d6160448201527179206d6f6469667920706f736974696f6e7360701b60648201526084016106a1565b60008181526013602052604090206007015460ff161515600114610d2c5760405162461bcd60e51b815260206004820152601a60248201527f5374616b696e6720706f736974696f6e20697320636c6f73656400000000000060448201526064016106a1565b600081815260136020526040902060078101805460ff1916905560030154421115610db75760008181526013602052604081206006810154600590910154610d7491906112ee565b60405190915033908290600081818185875af1925050503d8060008114610958576040519150601f19603f3d011682016040523d82523d6000602084013e61095d565b6000818152601360205260409081902060050154905133919061072d565b6000546001600160a01b03163314610e415760405162461bcd60e51b815260206004820152602960248201527f4f6e6c79206f776e657220686176652061636365737320746f207374616b696e6044820152686720706572696f647360b81b60648201526084016106a1565b6000828152601560205260408120919091556016805460018101825591527fd833147d7dc355ba459fc788f669e58cfaf9dc25ddcd0702e87d69c7b51242890155565b610ed76040518061010001604052806000815260200160006001600160a01b0316815260200160008152602001600081526020016000815260200160008152602001600081526020016000151581525090565b506000908152601360209081526040918290208251610100810184528154815260018201546001600160a01b0316928101929092526002810154928201929092526003820154606082015260048201546080820152600582015460a0820152600682015460c082015260079091015460ff16151560e082015290565b6000546001600160a01b03163314610fb85760405162461bcd60e51b815260206004820152602260248201527f4f6e6c79206f776e6572206d6179206d6f6469667920756e6c6f636b20646174604482015261657360f01b60648201526084016106a1565b60009182526013602052604090912060030155565b60008181526015602052604090205461101d5760405162461bcd60e51b815260206004820152601260248201527144617973206e6f7420617661696c61626c6560701b60448201526064016106a1565b6040518061010001604052806012548152602001336001600160a01b0316815260200142815260200182620151806110559190611326565b61105f90426112ee565b8152602001601560008481526020019081526020016000205481526020013481526020016110a1601560008581526020019081526020016000205484346111bf565b815260016020918201819052601280546000908152601384526040808220865181558686015181860180546001600160a01b0319166001600160a01b03909216919091179055868201516002820155606087015160038201556080870151600482015560a0870151600582015560c0870151600682015560e0909601516007909601805460ff19169615159690961790955533815260148452938420815481548085018355918652938520019290925581549092906111619084906112ee565b909155505050565b60606009805480602002602001604051908101604052809291908181526020018280548015610a4f5760200282019190600052602060002090815481526020019060010190808311610a3b575050505050905090565b60006127106111ce8386611326565b6111d89190611306565b949350505050565b80356001600160a01b03811681146111f757600080fd5b919050565b60006020828403121561120d578081fd5b611216826111e0565b9392505050565b6000806040838503121561122f578081fd5b611238836111e0565b946020939093013593505050565b600060208284031215611257578081fd5b5035919050565b60008060408385031215611270578182fd5b82359150611280602084016111e0565b90509250929050565b6000806040838503121561129b578182fd5b50508035926020909101359150565b6020808252825182820181905260009190848201906040850190845b818110156112e2578351835292840192918401916001016112c6565b50909695505050505050565b6000821982111561130157611301611345565b500190565b60008261132157634e487b7160e01b81526012600452602481fd5b500490565b600081600019048311821515161561134057611340611345565b500290565b634e487b7160e01b600052601160045260246000fdfea26469706673582212206b57d956b351f66e52e6e254a7caa85a0abdaefe1b05fb5683ef5fca64f8606264736f6c63430008040033",
  "linkReferences": {},
  "deployedLinkReferences": {}
}