{
  "_format": "hh-sol-artifact-1",
  "contractName": "Silvyx",
  "sourceName": "contracts/Silvyx.sol",
  "abi": [
    {
      "inputs": [],
      "stateMutability": "payable",
      "type": "constructor"
    },
    {
      "inputs": [
        {
          "internalType": "uint256",
          "name": "withdrawId",
          "type": "uint256"
        }
      ],
      "name": "abortWithdraw",
      "outputs": [],
      "stateMutability": "nonpayable",
      "type": "function"
    },
    {
      "inputs": [
        {
          "internalType": "uint256",
          "name": "positionId",
          "type": "uint256"
        },
        {
          "internalType": "uint256",
          "name": "newUnlockDate",
          "type": "uint256"
        }
      ],
      "name": "changeUnlockDate",
      "outputs": [],
      "stateMutability": "nonpayable",
      "type": "function"
    },
    {
      "inputs": [
        {
          "internalType": "uint256",
          "name": "positionId",
          "type": "uint256"
        }
      ],
      "name": "closePosition",
      "outputs": [],
      "stateMutability": "nonpayable",
      "type": "function"
    },
    {
      "inputs": [
        {
          "internalType": "uint256",
          "name": "withdrawId",
          "type": "uint256"
        },
        {
          "internalType": "address",
          "name": "reciever",
          "type": "address"
        }
      ],
      "name": "confirmRecieved",
      "outputs": [],
      "stateMutability": "nonpayable",
      "type": "function"
    },
    {
      "inputs": [],
      "name": "currentPositionId",
      "outputs": [
        {
          "internalType": "uint256",
          "name": "",
          "type": "uint256"
        }
      ],
      "stateMutability": "view",
      "type": "function"
    },
    {
      "inputs": [],
      "name": "currentWithdrawId",
      "outputs": [
        {
          "internalType": "uint256",
          "name": "",
          "type": "uint256"
        }
      ],
      "stateMutability": "view",
      "type": "function"
    },
    {
      "inputs": [
        {
          "internalType": "uint256",
          "name": "numDays",
          "type": "uint256"
        }
      ],
      "name": "getInterestRate",
      "outputs": [
        {
          "internalType": "uint256",
          "name": "",
          "type": "uint256"
        }
      ],
      "stateMutability": "view",
      "type": "function"
    },
    {
      "inputs": [],
      "name": "getLockPeriods",
      "outputs": [
        {
          "internalType": "uint256[]",
          "name": "",
          "type": "uint256[]"
        }
      ],
      "stateMutability": "view",
      "type": "function"
    },
    {
      "inputs": [
        {
          "internalType": "uint256",
          "name": "positionId",
          "type": "uint256"
        }
      ],
      "name": "getPositionById",
      "outputs": [
        {
          "components": [
            {
              "internalType": "uint256",
              "name": "positionId",
              "type": "uint256"
            },
            {
              "internalType": "address",
              "name": "walletAddress",
              "type": "address"
            },
            {
              "internalType": "uint256",
              "name": "createdDate",
              "type": "uint256"
            },
            {
              "internalType": "uint256",
              "name": "unlockDate",
              "type": "uint256"
            },
            {
              "internalType": "uint256",
              "name": "percentInterest",
              "type": "uint256"
            },
            {
              "internalType": "uint256",
              "name": "weiStaked",
              "type": "uint256"
            },
            {
              "internalType": "uint256",
              "name": "weiInterest",
              "type": "uint256"
            },
            {
              "internalType": "bool",
              "name": "open",
              "type": "bool"
            }
          ],
          "internalType": "struct Silvyx.StakingPosition",
          "name": "",
          "type": "tuple"
        }
      ],
      "stateMutability": "view",
      "type": "function"
    },
    {
      "inputs": [
        {
          "internalType": "address",
          "name": "walletAddress",
          "type": "address"
        }
      ],
      "name": "getPositionIdsForAddress",
      "outputs": [
        {
          "internalType": "uint256[]",
          "name": "",
          "type": "uint256[]"
        }
      ],
      "stateMutability": "view",
      "type": "function"
    },
    {
      "inputs": [
        {
          "internalType": "uint256",
          "name": "withdrawId",
          "type": "uint256"
        }
      ],
      "name": "getWithdrawPositionById",
      "outputs": [
        {
          "components": [
            {
              "internalType": "uint256",
              "name": "withdrawId",
              "type": "uint256"
            },
            {
              "internalType": "address",
              "name": "walletAddress",
              "type": "address"
            },
            {
              "internalType": "uint256",
              "name": "createdDate",
              "type": "uint256"
            },
            {
              "internalType": "uint256",
              "name": "withdrawAmount",
              "type": "uint256"
            },
            {
              "internalType": "bool",
              "name": "withdrawOpen",
              "type": "bool"
            }
          ],
          "internalType": "struct Silvyx.WithdrawPosition",
          "name": "",
          "type": "tuple"
        }
      ],
      "stateMutability": "view",
      "type": "function"
    },
    {
      "inputs": [
        {
          "internalType": "address",
          "name": "walletAddress",
          "type": "address"
        }
      ],
      "name": "getWithdrawPositionIdsForAddress",
      "outputs": [
        {
          "internalType": "uint256[]",
          "name": "",
          "type": "uint256[]"
        }
      ],
      "stateMutability": "view",
      "type": "function"
    },
    {
      "inputs": [
        {
          "internalType": "uint256",
          "name": "",
          "type": "uint256"
        }
      ],
      "name": "lockPeriods",
      "outputs": [
        {
          "internalType": "uint256",
          "name": "",
          "type": "uint256"
        }
      ],
      "stateMutability": "view",
      "type": "function"
    },
    {
      "inputs": [
        {
          "internalType": "uint256",
          "name": "numDays",
          "type": "uint256"
        },
        {
          "internalType": "uint256",
          "name": "basisPoints",
          "type": "uint256"
        }
      ],
      "name": "modifyLockPeriods",
      "outputs": [],
      "stateMutability": "nonpayable",
      "type": "function"
    },
    {
      "inputs": [],
      "name": "owner",
      "outputs": [
        {
          "internalType": "address",
          "name": "",
          "type": "address"
        }
      ],
      "stateMutability": "view",
      "type": "function"
    },
    {
      "inputs": [
        {
          "internalType": "address",
          "name": "",
          "type": "address"
        },
        {
          "internalType": "uint256",
          "name": "",
          "type": "uint256"
        }
      ],
      "name": "positionIdsByAddress",
      "outputs": [
        {
          "internalType": "uint256",
          "name": "",
          "type": "uint256"
        }
      ],
      "stateMutability": "view",
      "type": "function"
    },
    {
      "inputs": [
        {
          "internalType": "uint256",
          "name": "",
          "type": "uint256"
        }
      ],
      "name": "positions",
      "outputs": [
        {
          "internalType": "uint256",
          "name": "withdrawId",
          "type": "uint256"
        },
        {
          "internalType": "address",
          "name": "walletAddress",
          "type": "address"
        },
        {
          "internalType": "uint256",
          "name": "createdDate",
          "type": "uint256"
        },
        {
          "internalType": "uint256",
          "name": "withdrawAmount",
          "type": "uint256"
        },
        {
          "internalType": "bool",
          "name": "withdrawOpen",
          "type": "bool"
        }
      ],
      "stateMutability": "view",
      "type": "function"
    },
    {
      "inputs": [
        {
          "internalType": "uint256",
          "name": "numDays",
          "type": "uint256"
        }
      ],
      "name": "stakeToken",
      "outputs": [],
      "stateMutability": "payable",
      "type": "function"
    },
    {
      "inputs": [
        {
          "internalType": "uint256",
          "name": "",
          "type": "uint256"
        }
      ],
      "name": "stakingpositions",
      "outputs": [
        {
          "internalType": "uint256",
          "name": "positionId",
          "type": "uint256"
        },
        {
          "internalType": "address",
          "name": "walletAddress",
          "type": "address"
        },
        {
          "internalType": "uint256",
          "name": "createdDate",
          "type": "uint256"
        },
        {
          "internalType": "uint256",
          "name": "unlockDate",
          "type": "uint256"
        },
        {
          "internalType": "uint256",
          "name": "percentInterest",
          "type": "uint256"
        },
        {
          "internalType": "uint256",
          "name": "weiStaked",
          "type": "uint256"
        },
        {
          "internalType": "uint256",
          "name": "weiInterest",
          "type": "uint256"
        },
        {
          "internalType": "bool",
          "name": "open",
          "type": "bool"
        }
      ],
      "stateMutability": "view",
      "type": "function"
    },
    {
      "inputs": [
        {
          "internalType": "uint256",
          "name": "",
          "type": "uint256"
        }
      ],
      "name": "tiers",
      "outputs": [
        {
          "internalType": "uint256",
          "name": "",
          "type": "uint256"
        }
      ],
      "stateMutability": "view",
      "type": "function"
    },
    {
      "inputs": [],
      "name": "withdrawAmount",
      "outputs": [],
      "stateMutability": "payable",
      "type": "function"
    },
    {
      "inputs": [
        {
          "internalType": "address",
          "name": "",
          "type": "address"
        },
        {
          "internalType": "uint256",
          "name": "",
          "type": "uint256"
        }
      ],
      "name": "withdrawIdsByAddress",
      "outputs": [
        {
          "internalType": "uint256",
          "name": "",
          "type": "uint256"
        }
      ],
      "stateMutability": "view",
      "type": "function"
    }
  ],
  "bytecode": "0x6080604052600080546001600160a01b0319163317815560068190556011819055601460205260647f52102136546d97ed3f65ec1070a32935d3048ea12f310d29c378dc9d6555c0d65560c87f904977a779b22381a36c6463d4166ef55ee8cb3392c83093cb1750f1a00c9d945561012c7f65f9512343925c57130fd77667cb42fc83560c400ede0c87f3de7c6c27cf09a65560158054600181810183559282905260047f55f448fdea98c4d29eb340757ef0a66cd03dbb9538908a6a81d96026b71ec47591820155815480840183556007908201558154928301909155600a9101556112af806100f16000396000f3fe6080604052600436106101355760003560e01c80634c8f2a78116100ab57806399fbab881161006f57806399fbab881461042f578063a126d601146104b8578063b0f0475b146104d8578063b838ec86146104f8578063c7c9d0551461057f578063cda6b8471461059f57600080fd5b80634c8f2a78146102ff578063534844a21461031f57806357af32e914610327578063791ca197146103d75780638da5cb5b146103f757600080fd5b80631bdcbaac116100fd5780631bdcbaac146101f55780632777af4d1461025d57806328da478b1461027d57806340d98a441461029d57806341ee13be146102ca57806345eae373146102df57600080fd5b8063039af9eb1461013a5780630c196a741461017a5780630eb59f1d146101a75780631131c8cd146101c95780631add567f146101df575b600080fd5b34801561014657600080fd5b50610167610155366004611164565b60146020526000908152604090205481565b6040519081526020015b60405180910390f35b34801561018657600080fd5b50610167610195366004611164565b60009081526014602052604090205490565b3480156101b357600080fd5b506101c76101c2366004611164565b6105b2565b005b3480156101d557600080fd5b5061016760115481565b3480156101eb57600080fd5b5061016760065481565b34801561020157600080fd5b50610215610210366004611164565b610709565b6040516101719190815181526020808301516001600160a01b031690820152604080830151908201526060808301519082015260809182015115159181019190915260a00190565b34801561026957600080fd5b506101c761027836600461117c565b6107a3565b34801561028957600080fd5b5061016761029836600461113b565b6108f8565b3480156102a957600080fd5b506102bd6102b836600461111a565b610929565b60405161017191906111c8565b3480156102d657600080fd5b506102bd610995565b3480156102eb57600080fd5b506101676102fa36600461113b565b6109ed565b34801561030b57600080fd5b5061016761031a366004611164565b610a09565b6101c7610a2a565b34801561033357600080fd5b50610392610342366004611164565b6012602052600090815260409020805460018201546002830154600384015460048501546005860154600687015460079097015495966001600160a01b0390951695939492939192909160ff1688565b604080519889526001600160a01b039097166020890152958701949094526060860192909252608085015260a084015260c0830152151560e082015261010001610171565b3480156103e357600080fd5b506102bd6103f236600461111a565b610b4c565b34801561040357600080fd5b50600054610417906001600160a01b031681565b6040516001600160a01b039091168152602001610171565b34801561043b57600080fd5b5061048661044a366004611164565b6007602052600090815260409020805460018201546002830154600384015460049094015492936001600160a01b039092169290919060ff1685565b604080519586526001600160a01b0390941660208601529284019190915260608301521515608082015260a001610171565b3480156104c457600080fd5b506101c76104d3366004611164565b610bb6565b3480156104e457600080fd5b506101c76104f33660046111a7565b610d49565b34801561050457600080fd5b50610518610513366004611164565b610df8565b6040516101719190815181526020808301516001600160a01b03169082015260408083015190820152606080830151908201526080808301519082015260a0808301519082015260c0808301519082015260e0918201511515918101919091526101000190565b34801561058b57600080fd5b506101c761059a3660046111a7565b610ec7565b6101c76105ad366004611164565b610f41565b6000818152600760205260409020600101546001600160a01b0316331461063e5760405162461bcd60e51b815260206004820152603560248201527f4f6e6c79207769746864726177616c20706f736974696f6e2063726561746f72604482015274206d6179206d6f6469667920706f736974696f6e7360581b60648201526084015b60405180910390fd5b60008181526007602052604090206004015460ff16151560011461069b5760405162461bcd60e51b815260206004820152601460248201527315da5d1a191c985dd85b081a5cc818db1bdcd95960621b6044820152606401610635565b6000818152600760205260409081902060048101805460ff191690556003015490513391905b60006040518083038185875af1925050503d80600081146106fe576040519150601f19603f3d011682016040523d82523d6000602084013e610703565b606091505b50505050565b6107466040518060a001604052806000815260200160006001600160a01b0316815260200160008152602001600081526020016000151581525090565b50600090815260076020908152604091829020825160a0810184528154815260018201546001600160a01b0316928101929092526002810154928201929092526003820154606082015260049091015460ff161515608082015290565b6000828152600760205260409020600101546001600160a01b0316331461082b5760405162461bcd60e51b815260206004820152603660248201527f4f6e6c7920776974686472617777616c20706f736974696f6e2063726561746f60448201527572206d6179206d6f6469667920706f736974696f6e7360501b6064820152608401610635565b60008281526007602052604090206004015460ff1615156001146108895760405162461bcd60e51b815260206004820152601560248201527415da5d1a191c985dd85ddb081a5cc818db1bdcd959605a1b6044820152606401610635565b60008281526007602052604080822060048101805460ff191690556003015490516001600160a01b0384169281818185875af1925050503d80600081146108ec576040519150601f19603f3d011682016040523d82523d6000602084013e6108f1565b606091505b5050505050565b6008602052816000526040600020818154811061091457600080fd5b90600052602060002001600091509150505481565b6001600160a01b03811660009081526013602090815260409182902080548351818402810184019094528084526060939283018282801561098957602002820191906000526020600020905b815481526020019060010190808311610975575b50505050509050919050565b606060158054806020026020016040519081016040528092919081815260200182805480156109e357602002820191906000526020600020905b8154815260200190600101908083116109cf575b5050505050905090565b6013602052816000526040600020818154811061091457600080fd5b60158181548110610a1957600080fd5b600091825260209091200154905081565b60003411610a8e5760405162461bcd60e51b815260206004820152602b60248201527f5769746864726177616c20616d6f756e74206d7573742062652067726561746560448201526a72207468616e207a65726f60a81b6064820152608401610635565b6040805160a081018252600680548083523360208085018281524286880190815234606088019081526001608089018181526000978852600786528a882099518a55935189820180546001600160a01b0319166001600160a01b039092169190911790559151600289015551600388015590516004909601805460ff191696151596909617909555908252600881529381208254815480860183559183529482200193909355805491929091610b4590849061120c565b9091555050565b6001600160a01b03811660009081526008602090815260409182902080548351818402810184019094528084526060939283018282801561098957602002820191906000526020600020908154815260200190600101908083116109755750505050509050919050565b6000818152601260205260409020600101546001600160a01b03163314610c3a5760405162461bcd60e51b815260206004820152603260248201527f4f6e6c79207374616b696e6720706f736974696f6e2063726561746f72206d6160448201527179206d6f6469667920706f736974696f6e7360701b6064820152608401610635565b60008181526012602052604090206007015460ff161515600114610ca05760405162461bcd60e51b815260206004820152601a60248201527f5374616b696e6720706f736974696f6e20697320636c6f7365640000000000006044820152606401610635565b600081815260126020526040902060078101805460ff1916905560030154421115610d2b5760008181526012602052604081206006810154600590910154610ce8919061120c565b60405190915033908290600081818185875af1925050503d80600081146108ec576040519150601f19603f3d011682016040523d82523d6000602084013e6108f1565b600081815260126020526040908190206005015490513391906106c1565b6000546001600160a01b03163314610db55760405162461bcd60e51b815260206004820152602960248201527f4f6e6c79206f776e657220686176652061636365737320746f207374616b696e6044820152686720706572696f647360b81b6064820152608401610635565b6000828152601460205260408120919091556015805460018101825591527f55f448fdea98c4d29eb340757ef0a66cd03dbb9538908a6a81d96026b71ec4750155565b610e4b6040518061010001604052806000815260200160006001600160a01b0316815260200160008152602001600081526020016000815260200160008152602001600081526020016000151581525090565b506000908152601260209081526040918290208251610100810184528154815260018201546001600160a01b0316928101929092526002810154928201929092526003820154606082015260048201546080820152600582015460a0820152600682015460c082015260079091015460ff16151560e082015290565b6000546001600160a01b03163314610f2c5760405162461bcd60e51b815260206004820152602260248201527f4f6e6c79206f776e6572206d6179206d6f6469667920756e6c6f636b20646174604482015261657360f01b6064820152608401610635565b60009182526012602052604090912060030155565b600081815260146020526040902054610f915760405162461bcd60e51b815260206004820152601260248201527144617973206e6f7420617661696c61626c6560701b6044820152606401610635565b6040518061010001604052806011548152602001336001600160a01b031681526020014281526020018262015180610fc99190611244565b610fd3904261120c565b815260200160146000848152602001908152602001600020548152602001348152602001611015601460008581526020019081526020016000205484346110dd565b815260016020918201819052601180546000908152601284526040808220865181558686015181860180546001600160a01b0319166001600160a01b03909216919091179055868201516002820155606087015160038201556080870151600482015560a0870151600582015560c0870151600682015560e0909601516007909601805460ff19169615159690961790955533815260138452938420815481548085018355918652938520019290925581549092906110d590849061120c565b909155505050565b60006127106110ec8386611244565b6110f69190611224565b949350505050565b80356001600160a01b038116811461111557600080fd5b919050565b60006020828403121561112b578081fd5b611134826110fe565b9392505050565b6000806040838503121561114d578081fd5b611156836110fe565b946020939093013593505050565b600060208284031215611175578081fd5b5035919050565b6000806040838503121561118e578182fd5b8235915061119e602084016110fe565b90509250929050565b600080604083850312156111b9578182fd5b50508035926020909101359150565b6020808252825182820181905260009190848201906040850190845b81811015611200578351835292840192918401916001016111e4565b50909695505050505050565b6000821982111561121f5761121f611263565b500190565b60008261123f57634e487b7160e01b81526012600452602481fd5b500490565b600081600019048311821515161561125e5761125e611263565b500290565b634e487b7160e01b600052601160045260246000fdfea2646970667358221220af330d0e31c5265cbe609c865a4b09960f4ed35ba6436d5a7cf256d6fb3bfa8364736f6c63430008040033",
  "linkReferences": {},
  "deployedLinkReferences": {}
}